S01700002E2F44656275672F706F6E67323030302E733139F4
S315200000000248854600F016FFFEE7C04600C00120E4
S3152000001080B500AF0C4B00221A600C4B31221A60BF
S315200000200B4B00221A60084B05221A60C046064B6D
S315200000301A6880235B021340F9D0034B00221A6012
S31520000040C046BD4680BDC04610E000E014E000E09A
S3152000005018E000E080B500AFFFF7DAFFFFF7D8FF22
S31520000060C046BD4680BD80B582B000AF786007E04F
S31520000070FFF7CEFFFFF7CCFFFFF7CAFFFFF7C8FF5A
S315200000807B685A1E7A60002BF2D1C046BD4602B06C
S3152000009080BD80B582B000AF78607B681800FFF71E
S315200000A0E2FFC046BD4602B080BD80B582B000AF3B
S315200000B00200FB1D1A700949084B1B78DBB25AB2A5
S315200000C0FB1D1B785BB2042083435BB213435BB2F8
S315200000D0DBB20B70C046BD4602B080BD1410024094
S315200000E080B582B000AF0200FB1D1A700849084B8C
S315200000F01B78DBB25BB2FA1D127852B2D24352B2EF
S3152000010013405BB2DBB20B70C046BD4602B080BD69
S315200001101410024080B582B000AF0200FB1D1A7099
S31520000120FB1D1B78002B06D10820FFF7D9FF1020D6
S31520000130FFF7D6FF1FE0FB1D1B78182B06D10820E2
S31520000140FFF7B3FF1020FFF7B0FF14E0FB1D1B786D
S31520000150082B06D10820FFF7A8FF1020FFF7C0FFC5
S3152000016009E0FB1D1B78102B05D10820FFF7B8FFEF
S315200001701020FFF79AFFC046BD4602B080BD80B56D
S3152000018082B000AF4020FFF7ABFF164B164A1A602D
S315200001900120FFF7A5FF0220FFF787FFFFF75AFF91
S315200001A04020FFF782FFFFF755FF104B1B78DAB28E
S315200001B0FB1D7F218A431A704020FFF791FFFFF72E
S315200001C049FFFB1D1B78002B00D0E9E7C0464020E5
S315200001D0FFF76BFF034B064A1A60C046BD4602B0C6
S315200001E080BDC04600100240555500001110024047
S315200001F05555555580B584B000AF0200FB1D1A70C9
S315200002004020FFF76DFF1B4B1B4A1A600320FFF7A8
S315200002104CFFFB1D1B781800FFF77CFFFFF71AFF2A
S315200002204020FFF742FFFFF715FF144A0F23FB1864
S3152000023012781A704020FFF753FF0E4B104A1A60AF
S31520000240FB1D1B78082B04D10820FFF763FFFFF75F
S3152000025096FFFB1D1B78102B04D11020FFF75AFFA9
S31520000260FFF78DFF0F23FB181B781800BD4604B03F
S3152000027080BDC046001002405555000011100240B6
S315200002805555555580B582B000AF0200FB1D1A703A
S31520000290BB1D0A1C1A701A4AFB1D1B781370BB1D46
S315200002A01B781800FFF736FFFFF7D4FE4020FFF734
S315200002B0FCFEFFF7CFFE4020FFF712FFBB1D1B7889
S315200002C00822134004D00820FFF724FFFFF757FF2A
S315200002D0BB1D1B781022134004D01020FFF71AFFF5
S315200002E0FFF74DFF064B00221A704020FFF7DDFE78
S315200002F00020FFF70FFFC046BD4602B080BDC046B6
S315200003001510024080B582B000AF0200FB1D1A70A6
S31520000310BB1D0A1C1A704020FFF7E2FEBB1D1B788E
S315200003201800FFF7F7FE0320FFF7DAFEBB1D1A7849
S31520000330FB1D1B7811001800FFF7A4FFC046BD4621
S3152000034002B080BD80B582B000AF0200FB1D1A70DE
S31520000350BB1D0A1C1A704020FFF7C2FEBB1D1B786E
S315200003601800FFF7D7FE0120FFF79FFE0220FFF7B8
S31520000370B7FEBB1D1A78FB1D1B7811001800FFF76E
S3152000038081FFC046BD4602B080BD80B582B000AFB9
S315200003900200FB1D1A70FB1D1B781800FFF72AFFB1
S315200003A0FB1D1B781800FFF725FF03001800BD462C
S315200003B002B080BD80B500AF4020FFF776FE0A2050
S315200003C0FFF751FE7820FFF78BFE1E20FFF761FE18
S315200003D02020FFF76AFE18213E20FFF793FF182101
S315200003E03F20FFF78FFF1821C020FFF78BFF182132
S315200003F04020FFF787FF1821B820FFF783FF002052
S31520000400FFF788FEC046BD4680BD80B582B000AFEE
S3152000041000237B601EE07B685BB248225242134376
S315200004205BB2DBB218211800FFF76CFF18214020C1
S31520000430FFF768FF00233B6006E018210020FFF746
S3152000044081FF3B6801333B603B683E2BF5DD7B68D3
S3152000045001337B607B68072BDDDDC046BD4602B0DD
S3152000046080BD90B587B000AFF860B9607A60FB6850
S315200004707F2B00D9C7E0BB683F2B00D9C3E0BB6800
S31520000480013BDA081523FB181A70BB68013B0722CB
S31520000490134003D11723FB1801221A70BB68013BB6
S315200004A007221340012B03D11723FB1802221A70AF
S315200004B0BB68013B07221340022B03D11723FB18ED
S315200004C004221A70BB68013B07221340032B03D179
S315200004D01723FB1808221A70BB68013B072213401A
S315200004E0042B03D11723FB1810221A70BB68013B7B
S315200004F007221340052B03D11723FB1820221A703D
S31520000500BB68013B07221340062B03D11723FB1898
S3152000051040221A70BB68013B07221340072B03D1E8
S315200005201723FB1880221A707B68002B06D117230D
S31520000530FB181722BA181278D2431A70FB68402B80
S3152000054007D91623FB1810221A70FB68413BFB6063
S3152000055006E01623FB1808221A70FB68013BFB6095
S31520000560FB68DBB240221343DAB21623FB181B7852
S3152000057019001000FFF7C6FE1523FB181B7848222A
S3152000058052421343DAB21623FB181B7819001000C7
S31520000590FFF7B8FE1423FC181623FB181B78180047
S315200005A0FFF7F3FE03002370FB68DBB24022134300
S315200005B0DAB21623FB181B7819001000FFF7A2FEEB
S315200005C07B68012B0AD11723FB181722B91814228E
S315200005D0BA18097812780A431A7009E01723FB180B
S315200005E01722BA1814217918127809780A401A7035
S315200005F01623FB181A781723FB181B7811001800EE
S31520000600FFF7A0FE00E0C046BD4607B090BD80B50E
S3152000061082B000AF78607B68072B4ED87B689A0043
S31520000620284BD3181B689F46274A274B1B78DBB2DB
S3152000063001210B43DBB213703FE0234A224B1B7888
S31520000640DBB202210B43DBB2137036E01E4A1E4B8F
S315200006501B78DBB204210B43DBB213702DE01A4A60
S31520000660194B1B78DBB208210B43DBB2137024E055
S31520000670154A154B1B78DBB210210B43DBB21370E6
S315200006801BE0114A104B1B78DBB220210B43DBB257
S31520000690137012E00C4A0C4B1B78DBB240210B4343
S315200006A0DBB2137009E00849074B1B78DBB28022C6
S315200006B052421343DBB20B70C046C046BD4602B061
S315200006C080BDC04650100020140C024080B582B078
S315200006D000AF78607B68072B4DD87B689A00284B43
S315200006E0D3181B689F46274A264B1B78DBB201216D
S315200006F08B43DBB213703EE0224A224B1B78DBB2DF
S3152000070002218B43DBB2137035E01E4A1D4B1B784A
S31520000710DBB204218B43DBB213702CE0194A194B50
S315200007201B78DBB208218B43DBB2137023E0154A1A
S31520000730144B1B78DBB210218B43DBB213701AE00B
S31520000740104A104B1B78DBB220218B43DBB213708F
S3152000075011E00C4A0B4B1B78DBB240218B43DBB2FA
S31520000760137008E0074A074B1B78DBB27F210B404A
S31520000770DBB21370C046C046BD4602B080BDC0463F
S3152000078070100020140C024080B582B000AF020029
S31520000790FB1D1A704020FFF73AFF064AFB1D1B7807
S315200007A01370FFF735FC4020FFF790FFC046BD468B
S315200007B002B080BD150C024080B582B000AF40204B
S315200007C0FFF725FFFFF724FCFFF722FC064AFB1D57
S315200007D012781A704020FFF779FFFB1D1B7818004E
S315200007E0BD4602B080BDC046110C024080B582B025
S315200007F000AF0200FB1D1A700120FFF767FF0220E1
S31520000800FFF764FFFB1D1B781800FFF7BDFFC046EE
S31520000810BD4602B080BD80B582B000AF0200FB1D90
S315200008201A700120FFF7F3FE0220FFF74FFFFB1D92
S315200008301B781800FFF7A8FFC046BD4602B080BD52
S3152000084090B583B000AF114B104A12681204120CF7
S315200008501A600120FFF73AFF0220FFF7D8FEFC1DA1
S31520000860FFF7AAFF03002370084B084A12681204F8
S31520000870120C1A60054B054A126805490A431A608C
S31520000880FB1D1B781800BD4603B090BD000C02402E
S315200008900000555590B583B000AF114B104A126831
S315200008A01204120C1A600120FFF7B1FE0220FFF796
S315200008B0AEFEFC1DFFF780FF03002370084B084A9D
S315200008C012681204120C1A60054B054A1268054973
S315200008D00A431A60FB1D1B781800BD4603B090BD65
S315200008E0000C02400000555580B582B000AF0200D2
S315200008F03960FB1D1A70C046FFF7A2FF03001A00DD
S3152000090080231340802BF7D00820FFF7ACFBFB1D7C
S315200009101B781800FFF76AFF3B681800FFF7A3FB58
S31520000920C046BD4602B080BD80B500AF0420FFF7AB
S315200009306EFE28213820FFF7D7FF28210E20FFF74B
S31520000940D3FF064B19000120FFF7CEFF28210620F2
S31520000950FFF7CAFFC046BD4680BDC046FA05000067
S3152000096080B582B000AF78607B68042B19D87B688D
S315200009709A000E4BD3181B689F460D4B10221A70F7
S315200009800FE00B4B20221A700BE0094B40221A7005
S3152000099007E0074B80221A7003E0054B00221A70ED
S315200009A0C046C046BD4602B080BDC046901000205D
S315200009B0150C024080B582B000AF124AFB1D12789A
S315200009C01A70FB1D1B780822134001D0042315E062
S315200009D0FB1D1B780422134001D003230EE0FB1DD0
S315200009E01B780222134001D0022307E0FB1D1B784F
S315200009F00122134001D0012300E000231800BD4648
S31520000A0002B080BD110C024080B582B000AF02005A
S31520000A10FB1D1A70FB1D1B78002B02D1394B3F2280
S31520000A201A70FB1D1B78012B02D1364B06221A7039
S31520000A30FB1D1B78022B02D1324B5B221A70FB1D49
S31520000A401B78032B02D12F4B4F221A70FB1D1B78CC
S31520000A50042B02D12B4B66221A70FB1D1B78052B0B
S31520000A6002D1284B6D221A70FB1D1B78062B02D152
S31520000A70244B7D221A70FB1D1B78072B02D1214B9C
S31520000A8007221A70FB1D1B78082B02D11D4B7F22D3
S31520000A901A70FB1D1B78092B02D11A4B67221A707C
S31520000AA0FB1D1B780A2B02D1164B77221A70FB1DD1
S31520000AB01B780B2B02D1134B7F221A70FB1D1B7840
S31520000AC00C2B02D10F4BFF221A70FB1D1B780D2B0E
S31520000AD002D10C4BBF221A70FB1D1B780E2B02D1A4
S31520000AE0084B79221A70FB1D1B780F2B03D1054B5F
S31520000AF071221A7002E0034B00221A70C046BD46CE
S31520000B0002B080BD140C024090B587B000AF3B0008
S31520000B10174A13CA13C312681A6001237B611BE0AC
S31520000B207B691800FFF71CFFFFF772FAFFF742FFF9
S31520000B3003003B613B69002B0BD00020FFF710FF21
S31520000B407B69013B9A003B69013BD3183A00D35C91
S31520000B5009E07B6901337B617B69042BE0DD0020A2
S31520000B60FFF7FEFEFF231800BD4607B090BDC04626
S31520000B70A410002080B584B000AFF860B9607A6018
S31520000B80FB68BA685A60FB687A689A60C046BD46B8
S31520000B9004B080BD80B584B000AF78600023FB60D0
S31520000BA01FE07B681A68FB6804335B00D3180433A4
S31520000BB01B781A007B68DB68D31818007B681A68D4
S31520000BC0FB6804335B00D31805331B781A007B6857
S31520000BD01B69D31801221900FFF743FCFB68013378
S31520000BE0FB60FB684A2BDCDDC046BD4604B080BDF9
S31520000BF080B584B000AF78600023FB601FE07B687F
S31520000C001A68FB6804335B00D31804331B781A0078
S31520000C107B68DB68D31818007B681A68FB68043386
S31520000C205B00D31805331B781A007B681B69D31821
S31520000C3000221900FFF715FCFB680133FB60FB68F7
S31520000C404A2BDCDDC046BD4604B080BD80B582B0EF
S31520000C5000AF78607B681800FFF7CAFF7B681A69C7
S31520000C607B689B68D2187B681A617B681B69002B9E
S31520000C7003DA7B6800221A610EE07B681A697B68BA
S31520000C801B689B68D3183F2B06DD7B681B689B6817
S31520000C903F22D21A7B681A617B685B697A681000EA
S31520000CA09847C046BD4602B080BD80B584B000AF2F
S31520000CB078607B68DA687B685B68D2187B68DA6064
S31520000CC07B681A697B689B68D2187B681A617B6887
S31520000CD01B69002B03DB7B681B693F2B04DD7B68CC
S31520000CE09B685A427B689A60234BFB60234BBB6010
S31520000CF07B68DA68FB68D968FB681B685B68CB1879
S31520000D009A4214DC7B681A69FB681B699A420EDBDF
S31520000D107B681A69FB681969FB681B689B68CB1896
S31520000D209A4204DC7B685B685A427B685A607B681F
S31520000D30DA68BB68DB689A4214DB7B681A69BB6891
S31520000D401B699A420EDB7B681A69BB681969BB6806
S31520000D501B689B68CB189A4204DC7B685B685A4206
S31520000D607B685A607B685B697A6810009847C04642
S31520000D70BD4604B080BDC046640F0020400F002051
S31520000D8080B500AF0C4B0D4A1A600D4B0B4A1A600A
S31520000D900B4B0C4A1A600C4B0B4A128892B21A80E3
S31520000DA0094B094A128892B21A80084BAA221204C9
S31520000DB01A60C046BD4680BD0010024055555555A7
S31520000DC0000C024055550055040C02400C0C024004
S31520000DD080B582B000AF0200FB1D1A70FB1D1B7888
S31520000DE0012B04D1114B1B695A1E104B1A61FB1D96
S31520000DF01B78042B04D10D4B1B695A1C0B4B1A6113
S31520000E00FB1D1B78032B04D1094B1B695A1E084B6B
S31520000E101A61FB1D1B78062B04D1054B1B695A1C36
S31520000E20034B1A61C046BD4602B080BD640F002048
S31520000E30400F002080B584B000AFFFF7A1FFFFF779
S31520000E40B9FA134BFB60134BBB60134B7B60FB68FB
S31520000E501B6AF868042204219847FFF755FE030011
S31520000E601800FFF7B5FFFB68DB69FA6810009847A2
S31520000E70BB68DB69BA68100098477B68DB697A68CB
S31520000E80100098472820FFF704F9FFF7BEFAE4E799
S31520000E902C100020640F0020400F00204B00000083
S31520000EA002000000190000000001000200030004F7
S31520000EB000050006000700080009000A000B000CC8
S31520000EC0000D000E000F0010001100120013001478
S31520000ED00015001600170018001901010102010370
S31520000EE0010401050106010701080109010A010B98
S31520000EF0010C010D010E010F011001110112011348
S31520000F000114011501160117011801190201020227
S31520000F100203020402050206020702080209020A67
S31520000F20020B020C020D020E020F02100211021217
S31520000F3002130214021502160217021802190000E3
S31520000F409C0E002000000000000000007D00000034
S31520000F5001000000950B0020F10B00204D0C002015
S31520000F60750B00209C0E00200000000000000000F1
S31520000F700100000001000000950B0020F10B00206D
S31520000F804D0C0020750B00200C0000000400000012
S31520000F90040000000001000201000101010201031A
S31520000FA00200020102020203030103020000000004
S31520000FB0000000000000000000000000000000000B
S31520000FC000000000000000000000000000000000FB
S31520000FD000000000000000000000000000000000EB
S31520000FE000000000000000000000000000000000DB
S31520000FF000000000000000000000000000000000CB
S3152000100000000000000000000000000000000000BA
S3152000101000000000000000000000000000000000AA
S31520001020000000000000000000000000880F0020E3
S315200010300000000000000000010000000100000088
S31520001040950B0020F10B0020AB0C0020750B002027
S31520001050280600203A0600204C0600205E060020C6
S31520001060700600208206002094060020A606002096
S31520001070E6060020F80600200A0700201C070020AC
S315200010802E0700204007002052070020640700207A
S315200010909A0900207A090020820900208A09002066
S315200010A0920900200102030A0405060B0708090C11
S309200010B00E000F0DEC
S70520000000DA
