S01600002E2F44656275672F5379735469636B2E733139A1
S315200000000248854600F09CF8FEE7C04600C0012065
S3152000001080B500AF0C4B00221A600C4B31221A60BF
S315200000200B4B00221A60084B05221A60C046064B6D
S315200000301A6880235B021340F9D0034B00221A6012
S31520000040C046BD4680BDC04610E000E014E000E09A
S3152000005018E000E080B500AFFFF7DAFFFFF7D8FF22
S31520000060C046BD4680BD80B582B000AF786007E04F
S31520000070FFF7CEFFFFF7CCFFFFF7CAFFFFF7C8FF5A
S315200000807B685A1E7A60002BF2D1C046BD4602B06C
S3152000009080BD80B582B000AF78607B68FA2292007E
S315200000A053431800FFF7DFFFC046BD4602B080BDB0
S315200000B080B500AF084B00221A70074B00229A70B9
S315200000C0054B00229A60044BA7225A60024B072256
S315200000D01A70C046BD4680BD10E000E080B582B0F3
S315200000E000AF7860054B7A681A60054B00221A70BB
S315200000F0FFF7DEFFC046BD4602B080BDB00100203E
S31520000100AC01002080B500AF024B00221A70C04619
S31520000110BD4680BDAC01002080B500AF044B054A2A
S315200001201A60054B054A1A60C046BD4680BDC046CA
S31520000130000C0240555555553CC0012005010020B4
S3152000014080B582B000AF00237B60FFF7E5FF134B3D
S3152000015000221A70124B1800FFF7C0FF0F4BFF2228
S315200001601A70104B1B78012B0FD00C4BFF221A70E4
S315200001707B680D4A934204D1084B00221A70002353
S315200001807B607B6801337B60EBE7C046034B002234
S315200001901A70C046BD4602B080BDC046140C02404F
S315200001A040420F00AC010020983A000000000000F9
S309200001B00000000025
S70520000000DA
