S01600002E2F44656275672F5379735469636B2E733139A1
S315200000000248854600F06AF8FEE7C04600C0012097
S3152000001080B500AF084B1B78DBB25A1ED1B2064A18
S315200000201170002B03D1054B01221A7001E000F05C
S3152000003023F8C046BD4680BD1D0100201C010020BE
S3152000004080B500AF084B084A1268120C12041A60D9
S31520000050054B054A126805490A431A60044B054AAE
S315200000601A60C046BD4680BD0010024055550000AE
S315200000703CC001201100002080B500AF084B0022B3
S315200000801A70084B00221A60074BC0221A60074BD1
S3152000009000221A60034B07221A60C046BD4680BD67
S315200000A01C01002010E000E014E000E018E000E071
S315200000B080B582B000AF7860064B00221A707B684C
S315200000C0DAB2054B1A70FFF7D7FFC046BD4602B01D
S315200000D080BDC0461C0100201D01002080B500AF58
S315200000E0FFF7AEFF0B4B00221A70FA239B00180075
S315200000F0FFF7DEFF074BFF221A70074B1B78DBB298
S31520000100002B00D1F9E7C046024B00221A70C046E8
S31520000110BD4680BD141002401C01002000000000D6
S70520000000DA
