S01600002E2F44656275672F365F355F6972712E733139F6
S315200000000248854600F096F8FEE7C04600C001206B
S3152000001080B500AF204B1B680822134039D01E4BF9
S315200000201B68012213400DD01C4B1B78DBB2013319
S31520000030DAB21A4B1A70184B174A126801210A4372
S315200000401A6020E0144B1B680222134009D0134B80
S3152000005000221A70104B104A126802210A431A60B5
S3152000006011E00D4B1B68042213400CD00B4B1B7860
S31520000070DBB2DB43DAB2094B1A70074B064A126829
S3152000008004210A431A60044B034A126808210A43D2
S315200000901A60C046BD4680BD143C01405001002078
S315200000A080B500AF194B194A1268120C12041A6057
S315200000B0164B164A126816490A431A60154B002237
S315200000C01A60154B144A1268120C12041A60124B4D
S315200000D0114A126811490A431A60114B104A1268D4
S315200000E00F210A431A600F4B0E4A12680F210A434A
S315200000F01A600D4B0D4A1A600D4B0D4A1268F021FD
S3152000010089000A431A60C046BD4680BD000C0240E5
S3152000011055550000001002400838014044440000B4
S31520000120003C01400C3C014064C00120110000202D
S3152000013000E100E080B500AFFFF7B2FF024A034BB3
S315200001401B78DBB21370F9E7140C02405001002033
S309200001500000000085
S70520000000DA
