S01400002E2F44656275672F44656C61792E7331397E
S315200000000248854600F0A8F9FEE7C04600C0012058
S3152000001080B500AF0A4B0B4A1A600B4B0B4A1A806D
S315200000200B4B0C4A1A600C4B00221A700B4B002209
S315200000301A700B4B00221A70C046BD4680BDC046C2
S3152000004000100240555555550410024077770000A0
S315200000500C100240AAAAAAAA1510024014100240A7
S315200000601110024080B500AF0C4B00221A600C4BD9
S3152000007031221A600B4B00221A60084B05221A60A7
S31520000080C046064B1A6880235B021340F9D0034B07
S3152000009000221A60C046BD4680BDC04610E000E082
S315200000A014E000E018E000E080B582B000AF786090
S315200000B007E0FFF7D7FFFFF7D5FFFFF7D3FFFFF7DF
S315200000C0D1FF7B685A1E7A60002BF2D1C046BD460E
S315200000D002B080BD80B582B000AF78607B68180022
S315200000E0FFF7E2FFC046BD4602B080BD80B584B0B2
S315200000F000AF0200FB1D1A700D4A0F23FB18127861
S315200001001A70FA1D0F23FB1812781B781343DAB2E4
S315200001100F23FB1802210A431A70054A0F23FB18E6
S315200001201B781370C0461800BD4604B080BDC0467B
S315200001301410024080B584B000AF0200FB1D1A7077
S315200001400F4A0F23FB1812781A70FB1D1B785BB21F
S31520000150DB435BB20F22BA18127852B213405BB25D
S31520000160022213435AB20F23FB181A70044A0F2394
S31520000170FB181B781370C046BD4604B080BDC04630
S315200001801410024080B582B000AF0200FB1D1A7029
S315200001900620FFF7ABFF064AFB1D1B781370FFF7FF
S315200001A061FF0620FFF7C6FFC046BD4602B080BDF0
S315200001B01510024080B582B000AF0620FFF796FFEB
S315200001C0FFF750FFFFF74EFF064AFB1D12781A7005
S315200001D00620FFF7AFFFFB1D1B781800BD4602B0B7
S315200001E080BDC0461110024080B582B000AF02002B
S315200001F0FB1D1A700020FFF79DFF0120FFF79AFFD5
S31520000200FB1D1B781800FFF7BDFFC046BD4602B098
S3152000021080BD80B582B000AF0200FB1D1A700020A1
S31520000220FFF764FF0120FFF785FFFB1D1B781800F1
S31520000230FFF7A8FFC046BD4602B080BD90B583B08B
S3152000024000AF114B104A12681204120C1A600020DB
S31520000250FFF770FF0120FFF749FFFC1DFFF7AAFFFC
S3152000026003002370084B084A12681204120C1A6005
S31520000270054B054A126805490A431A60FB1D1B787F
S315200002801800BD4603B090BD001002400000555531
S3152000029090B583B000AF114B104A12681204120CAD
S315200002A01A600020FFF722FF0120FFF71FFFFC1D29
S315200002B0FFF780FF03002370084B084A12681204D8
S315200002C0120C1A60054B054A126805490A431A6042
S315200002D0FB1D1B781800BD4603B090BD00100240E0
S315200002E00000555580B582B000AF02003960FB1D75
S315200002F01A70C046FFF7A2FF03001A00012313401D
S31520000300F8D10820FFF7D0FEFB1D1B781800FFF759
S315200003106BFF3B681800FFF7C7FEC046BD4602B01C
S3152000032080BD80B500AF0220FFF7E0FE28213820EF
S31520000330FFF7D8FF28210E20FFF7D4FF054B190021
S315200003400120FFF7CFFF28210620FFF7CBFFC0466D
S31520000350BD4680BDFA05000080B582B000AF78604A
S315200003603960FFF755FE084B00221A70FA235B000E
S315200003701800FFF7AFFE044BFF221A70FA235B002A
S311200003801800FFF7A7FEEEE7141002405D
S70520000000DA
