S01400002E2F44656275672F44656C61792E7331397E
S315200000000248854600F072F8FEE7C04600C001208F
S3152000001080B500AF0A4B0B4A1A600B4B0B4A1A806D
S315200000200B4B0C4A1A600C4B00221A700B4B002209
S315200000301A700B4B00221A70C046BD4680BDC046C2
S3152000004000100240555555550410024077770000A0
S315200000500C100240AAAAAAAA1510024014100240A7
S315200000601110024080B500AF0C4B00221A600C4BD9
S3152000007031221A600B4B00221A60084B05221A60A7
S31520000080C046064B1A6880235B021340F9D0034B07
S3152000009000221A60C046BD4680BDC04610E000E082
S315200000A014E000E018E000E080B582B000AF786090
S315200000B007E0FFF7D7FFFFF7D5FFFFF7D3FFFFF7DF
S315200000C0D1FF7B685A1E7A60002BF2D1C046BD460E
S315200000D002B080BD80B582B000AF78607B68180022
S315200000E0FFF7E2FFC046BD4602B080BD80B582B0B4
S315200000F000AF78603960FFF78BFF084B00221A703B
S31520000100FA235B001800FFF7E5FF044BFF221A7065
S31520000110FA235B001800FFF7DDFFEEE7141002401C
S70520000000DA
