S01600002E2F44656275672F4C4344446973702E73313908
S315200000000248854600F039FAFEE7C04600C00120C6
S3152000001080B500AF0C4B00221A600C4B31221A60BF
S315200000200B4B00221A60084B05221A60C046064B6D
S315200000301A6880235B021340F9D0034B00221A6012
S31520000040C046BD4680BDC04610E000E014E000E09A
S3152000005018E000E080B500AFFFF7DAFFFFF7D8FF22
S31520000060C046BD4680BD80B582B000AF0200FB1DF4
S315200000701A700949084B1B78DBB25AB2FB1D1B7854
S315200000805BB2042083435BB213435BB2DBB20B70DB
S31520000090C046BD4602B080BD1410024080B582B075
S315200000A000AF0200FB1D1A700849084B1B78DBB213
S315200000B05BB2FA1D127852B2D24352B213405BB2EF
S315200000C0DBB20B70C046BD4602B080BD14100240A4
S315200000D080B582B000AF0200FB1D1A70FB1D1B7895
S315200000E0002B06D10820FFF7D9FF1020FFF7D6FFF7
S315200000F005E00820FFF7B7FF1020FFF7B4FFFB1D30
S315200001001B78082B05D10820FFF7ADFF1020FFF73D
S31520000110C5FFFB1D1B78102B05D10820FFF7BEFF5E
S315200001201020FFF7A0FFC046BD4602B080BD80B5B7
S3152000013000AF0620FFF7B2FF124B134A1A600020C9
S31520000140FFF7ACFF0120FFF78EFFFFF783FF09E0E3
S315200001500620FFF788FFFFF77DFF0620FFF79EFFAB
S31520000160FFF778FF094B1B78DBB25BB2002BEFDB86
S31520000170044B074A1A600620FFF775FFC046BD46A6
S3152000018080BDC046001002405555000011100240A7
S315200001905555555580B584B000AF0200FB1D1A7029
S315200001A00620FFF77BFF1C4B1C4A1A600020FFF736
S315200001B05AFF0120FFF757FFFB1D1B781800FFF79A
S315200001C087FFFFF747FF0620FFF74DFFFFF742FFA8
S315200001D0134A0F23FB1812781A700620FFF75EFFCA
S315200001E00D4B104A1A60FB1D1B78082B04D10820E2
S315200001F0FFF76EFFFFF79BFFFB1D1B78102B04D12B
S315200002001020FFF765FFFFF792FF0F23FB181B78DF
S315200002101800BD4604B080BD0010024055550000B0
S31520000220111002405555555580B582B000AF0200D9
S31520000230FB1D1A70BB1D0A1C1A701A4AFB1D1B785F
S315200002401370BB1D1B781800FFF742FFFFF702FF54
S315200002500620FFF708FFFFF7FDFE0620FFF71EFF2B
S31520000260BB1D1B780822134004D00820FFF730FF5F
S31520000270FFF75DFFBB1D1B781022134004D0102012
S31520000280FFF726FFFFF753FF064B00221A700620C2
S31520000290FFF7E9FE0020FFF71BFFC046BD4602B070
S315200002A080BDC0461110024080B582B000AF02006A
S315200002B0FB1D1A70BB1D0A1C1A700620FFF7EEFEE6
S315200002C0BB1D1B781800FFF703FF0020FFF7E6FE93
S315200002D00120FFF7E3FEBB1D1A78FB1D1B781100DA
S315200002E01800FFF7A1FFC046BD4602B080BD80B50D
S315200002F082B000AF0200FB1D1A70BB1D0A1C1A70CB
S315200003000620FFF7CBFEBB1D1B781800FFF7E0FE8B
S315200003100020FFF7A8FE0120FFF7C0FEBB1D1A78BC
S31520000320FB1D1B7811001800FFF77EFFC046BD4657
S3152000033002B080BD80B582B000AF0200FB1D1A70EE
S31520000340FB1D1B781800FFF725FFFB1D1B781800E7
S31520000350FFF720FF03001800BD4602B080BD80B520
S3152000036082B000AF786007E0FFF752FEFFF750FE3D
S31520000370FFF74EFEFFF74CFE7B685A1E7A60002B75
S31520000380F2D1C046BD4602B080BD80B582B000AF76
S3152000039078607B68FA22920053431800FFF7DFFF4C
S315200003A0C046BD4602B080BD80B500AF024B034AB1
S315200003B01A60C046BD4680BD0010024055555555B1
S315200003C080B500AF0620FFF74EFE0A20FFF7C7FFD5
S315200003D00820FFF763FE1020FFF760FE2020FFF7BE
S315200003E05DFE0620FFF75AFE1E20FFF7B8FF1821F4
S315200003F03E20FFF759FF18213F20FFF755FF182110
S31520000400C020FFF751FF18214020FFF74DFF18218C
S31520000410B820FFF749FF0020FFF75AFEC046BD4629
S3152000042080BD80B582B000AF00237B601EE07B6874
S315200004305BB24822524213435BB2DBB2182118004A
S31520000440FFF732FF18214020FFF72EFF00233B60E5
S3152000045006E018210020FFF74AFF3B6801333B6086
S315200004603B683E2BF5DD7B6801337B607B68072B81
S31520000470DDDDC046BD4602B080BD80B500AFFFF7CA
S3152000048093FFFFF79DFF18214A20FFF70DFF182144
S31520000490B920FFF709FF1821FF20FFF728FFC046E4
S309200004A0BD4680BDF2
S70520000000DA
