S01600002E2F44656275672F4C4344446973702E73313908
S315200000000248854600F03DFAFEE7C04600C00120C2
S3152000001080B500AF0C4B00221A600C4B31221A60BF
S315200000200B4B00221A60084B05221A60C046064B6D
S315200000301A6880235B021340F9D0034B00221A6012
S31520000040C046BD4680BDC04610E000E014E000E09A
S3152000005018E000E080B500AFFFF7DAFFFFF7D8FF22
S31520000060C046BD4680BD80B582B000AF0200FB1DF4
S315200000701A700949084B1B78DBB25AB2FB1D1B7854
S315200000805BB2042083435BB213435BB2DBB20B70DB
S31520000090C046BD4602B080BD1410024080B582B075
S315200000A000AF0200FB1D1A700849084B1B78DBB213
S315200000B05BB2FA1D127852B2D24352B213405BB2EF
S315200000C0DBB20B70C046BD4602B080BD14100240A4
S315200000D080B582B000AF0200FB1D1A70FB1D1B7895
S315200000E0002B06D10820FFF7D9FF1020FFF7D6FFF7
S315200000F005E00820FFF7B7FF1020FFF7B4FFFB1D30
S315200001001B78082B05D10820FFF7ADFF1020FFF73D
S31520000110C5FFFB1D1B78102B05D10820FFF7BEFF5E
S315200001201020FFF7A0FFC046BD4602B080BD80B5B7
S3152000013082B000AF0620FFF7B1FF154B154A1A60B3
S315200001400020FFF7ABFF0120FFF78DFFFFF782FFAF
S315200001500620FFF788FFFFF77DFF0F4AFB1D127869
S315200001601A700620FFF79AFFFFF774FFFB1D1B7816
S315200001705BB2002B00DAEBE7C046054B074A1A6054
S315200001800620FFF770FFC046BD4602B080BDC046C0
S315200001900010024055550000151002405555555582
S315200001A080B584B000AF0200FB1D1A700620FFF751
S315200001B075FF1C4B1C4A1A600020FFF754FF0120D4
S315200001C0FFF751FFFB1D1B781800FFF781FFFFF794
S315200001D041FF0620FFF747FFFFF73CFF134A0F2397
S315200001E0FB1812781A700620FFF758FF0D4B104A9D
S315200001F01A60FB1D1B78082B04D10820FFF768FF27
S31520000200FFF795FFFB1D1B78102B04D11020FFF75D
S315200002105FFFFFF78CFF0F23FB181B781800BD46E6
S3152000022004B080BD00100240555500001110024058
S315200002305555555580B582B000AF0200FB1D1A708A
S31520000240BB1D0A1C1A701A4AFB1D1B781370BB1D96
S315200002501B781800FFF73CFFFFF7FCFE0620FFF790
S3152000026002FFFFF7F7FE0620FFF718FFBB1D1B78DE
S315200002700822134004D00820FFF72AFFFFF757FF74
S31520000280BB1D1B781022134004D01020FFF720FF3F
S31520000290FFF74DFF064B00221A700620FFF7E3FEFC
S315200002A00020FFF715FFC046BD4602B080BDC04600
S315200002B01110024080B582B000AF0200FB1D1A70FB
S315200002C0BB1D0A1C1A700620FFF7E8FEBB1D1B7813
S315200002D01800FFF7FDFE0020FFF7E0FE0120FFF7E4
S315200002E0DDFEBB1D1A78FB1D1B7811001800FFF7D9
S315200002F0A1FFC046BD4602B080BD80B582B000AF2A
S315200003000200FB1D1A70BB1D0A1C1A700620FFF77F
S31520000310C5FEBB1D1B781800FFF7DAFE0020FFF78D
S31520000320A2FE0120FFF7BAFEBB1D1A78FB1D1B7823
S3152000033011001800FFF77EFFC046BD4602B080BD03
S3152000034080B582B000AF0200FB1D1A70FB1D1B7822
S315200003501800FFF725FFFB1D1B781800FFF720FF6D
S31520000360BD4602B080BD80B582B000AF786007E0A0
S31520000370FFF74EFEFFF74CFEFFF74AFEFFF748FE5B
S315200003807B685A1E7A60002BF2D1C046BD4602B069
S3152000039080BD80B582B000AF78607B68FA2292007B
S315200003A053431800FFF7DFFFC046BD4602B080BDAD
S315200003B080B500AF024B034A1A60C046BD4680BDD9
S315200003C0001002405555555580B500AF0620FFF761
S315200003D04AFE0A20FFF7C7FF0820FFF75FFE10201E
S315200003E0FFF75CFE2020FFF759FE0620FFF756FE9A
S315200003F01E20FFF7B8FF18213E20FFF75BFF1821CC
S315200004003F20FFF757FF1821C020FFF753FF182181
S315200004104020FFF74FFF1821B820FFF74BFF0020A1
S31520000420FFF756FEC046BD4680BD80B582B000AF00
S3152000043000237B601EE07B685BB248225242134356
S315200004405BB2DBB218211800FFF734FF18214020D9
S31520000450FFF730FF00233B6006E018210020FFF75E
S315200004604CFF3B6801333B603B683E2BF5DD7B68E8
S3152000047001337B607B68072BDDDDC046BD4602B0BD
S3152000048080BD80B500AFFFF793FFFFF79DFFFFF715
S31520000490CCFF18214A20FFF70DFF1821B920FFF7BE
S315200004A009FF1821FF20FFF728FFC046BD4680BD63
S70520000000DA
