S01600002E2F44656275672F4C4344446973702E73313908
S315200000000248854600F016FBFEE7C04600C00120E8
S3152000001080B500AF0C4B00221A600C4B31221A60BF
S315200000200B4B00221A60084B05221A60C046064B6D
S315200000301A6880235B021340F9D0034B00221A6012
S31520000040C046BD4680BDC04610E000E014E000E09A
S3152000005018E000E080B500AFFFF7DAFFFFF7D8FF22
S31520000060C046BD4680BD80B582B000AF786007E04F
S31520000070FFF7CEFFFFF7CCFFFFF7CAFFFFF7C8FF5A
S315200000807B685A1E7A60002BF2D1C046BD4602B06C
S3152000009080BD80B582B000AF78607B681800FFF71E
S315200000A0E2FFC046BD4602B080BD80B582B000AF3B
S315200000B00200FB1D1A700949084B1B78DBB25AB2A5
S315200000C0FB1D1B785BB2042083435BB213435BB2F8
S315200000D0DBB20B70C046BD4602B080BD1410024094
S315200000E080B582B000AF0200FB1D1A700849084B8C
S315200000F01B78DBB25BB2FA1D127852B2D24352B2EF
S3152000010013405BB2DBB20B70C046BD4602B080BD69
S315200001101410024080B582B000AF0200FB1D1A7099
S31520000120FB1D1B78002B06D10820FFF7D9FF1020D6
S31520000130FFF7D6FF1FE0FB1D1B78182B06D10820E2
S31520000140FFF7B3FF1020FFF7B0FF14E0FB1D1B786D
S31520000150082B06D10820FFF7A8FF1020FFF7C0FFC5
S3152000016009E0FB1D1B78102B05D10820FFF7B8FFEF
S315200001701020FFF79AFFC046BD4602B080BD80B56D
S3152000018000AF4020FFF7ACFF124B134A1A60012044
S31520000190FFF7A6FF0220FFF788FFFFF75BFF40204F
S315200001A0FFF783FFFFF756FF4020FFF799FFFFF782
S315200001B051FF0A4B1B78DBB25BB2002B00DAEEE76D
S315200001C0C0464020FFF771FF024B054A1A60C04621
S315200001D0BD4680BD0010024055550000111002405A
S315200001E05555555580B584B000AF0200FB1D1A70D9
S315200001F04020FFF775FF1C4B1C4A1A600120FFF7B1
S3152000020054FF0220FFF751FFFB1D1B781800FFF754
S3152000021081FFFFF71FFF4020FFF747FFFFF71AFF79
S31520000220134A0F23FB1812781A704020FFF758FF45
S315200002300D4B104A1A60FB1D1B78082B04D1082091
S31520000240FFF768FFFFF79BFFFB1D1B78102B04D1E0
S315200002501020FFF75FFFFFF792FF0F23FB181B7895
S315200002601800BD4604B080BD001002405555000060
S31520000270111002405555555580B582B000AF020089
S31520000280FB1D1A70BB1D0A1C1A701A4AFB1D1B780F
S315200002901370BB1D1B781800FFF73CFFFFF7DAFE33
S315200002A04020FFF702FFFFF7D5FE4020FFF718FF9B
S315200002B0BB1D1B780822134004D00820FFF72AFF15
S315200002C0FFF75DFFBB1D1B781022134004D01020C2
S315200002D0FFF720FFFFF753FF064B00221A7040203E
S315200002E0FFF7E3FE0020FFF715FFC046BD4602B02C
S315200002F080BDC0461510024080B582B000AF020016
S31520000300FB1D1A70BB1D0A1C1A704020FFF7E8FE61
S31520000310BB1D1B781800FFF7FDFE0120FFF7E0FE4E
S315200003200220FFF7DDFEBB1D1A78FB1D1B7811008E
S315200003301800FFF7A1FFC046BD4602B080BD80B5BC
S3152000034082B000AF0200FB1D1A70BB1D0A1C1A707A
S315200003504020FFF7C5FEBB1D1B781800FFF7DAFE0D
S315200003600120FFF7A2FE0220FFF7BAFEBB1D1A7876
S31520000370FB1D1B7811001800FFF77EFFC046BD4607
S3152000038002B080BD80B582B000AF0200FB1D1A709E
S31520000390FB1D1B781800FFF725FFFB1D1B78180097
S315200003A0FFF720FF03001800BD4602B080BD80B5D0
S315200003B000AF4020FFF779FE0A20FFF754FE082001
S315200003C0FFF78EFE1020FFF78BFE2020FFF788FE1A
S315200003D04020FFF785FE1E20FFF75BFE2020FFF75B
S315200003E064FE18213E20FFF787FF18213F20FFF7E4
S315200003F083FF1821C020FFF77FFF18214020FFF739
S315200004007BFF1821B820FFF777FF0020FFF782FE39
S31520000410C046BD4680BD80B582B000AF00237B605C
S315200004201EE07B685BB24822524213435BB2DBB2CA
S3152000043018211800FFF760FF18214020FFF75CFF06
S3152000044000233B6006E018210020FFF778FF3B6879
S3152000045001333B603B683E2BF5DD7B6801337B60D7
S315200004607B68072BDDDDC046BD4602B080BD90B55A
S3152000047087B000AFF860B9607A60FB687F2B00D93F
S31520000480C7E0BB683F2B00D9C3E0BB68013BDA0855
S315200004901523FB181A70BB68013B0722134003D1B2
S315200004A01723FB1801221A70BB68013B0722134051
S315200004B0012B03D11723FB1802221A70BB68013BBC
S315200004C007221340022B03D11723FB1804221A708C
S315200004D0BB68013B07221340032B03D11723FB18CC
S315200004E008221A70BB68013B07221340042B03D154
S315200004F01723FB1810221A70BB68013B07221340F2
S31520000500052B03D11723FB1820221A70BB68013B49
S3152000051007221340062B03D11723FB1840221A70FB
S31520000520BB68013B07221340072B03D11723FB1877
S3152000053080221A707B68092B06D11723FB181722F5
S31520000540BA181278D2431A70FB68402B07D91623A3
S31520000550FB1810221A70FB68413BFB6006E016234D
S31520000560FB1808221A70FB68013BFB60FB68DBB2B4
S3152000057040221343DAB21623FB181B781900100009
S31520000580FFF7BAFE1523FB181B7848225242134365
S31520000590DAB21623FB181B7819001000FFF7ACFE01
S315200005A01423FC181623FB181B781800FFF71AFED5
S315200005B003002370FB68DBB240221343DAB2162312
S315200005C0FB181B7819001000FFF796FE7B68012B9D
S315200005D00AD11723FB181722B9181422BA1809783A
S315200005E012780A431A7009E01723FB181722BA1843
S315200005F014217918127809780A401A701623FB18E4
S315200006001A781723FB181B7811001800FFF797FE9E
S3152000061000E0C046BD4607B090BD80B500AF034B95
S31520000620034A1A60C046BD4680BDC046001002403F
S315200006305555555580B584B000AFFFF7EEFFFFF74F
S31520000640B6FE18214A20FFF757FE1821B920FFF7DA
S3152000065053FE1821FF20FFF772FE0023FB6008E0FF
S31520000660FB6801220A211800FFF701FFFB6801330E
S31520000670FB60FB687F2BF3DD0023BB6008E0BB68D3
S31520000680012219000A20FFF7F2FEBB680133BB6086
S31520000690BB683F2BF3DDFFF7DDFC00237B6008E022
S315200006A07B6800220A211800FFF7E1FE7B680133F0
S315200006B07B607B687F2BF3DD00233B6008E03B6893
S315200006C0002219000A20FFF7D2FE3B6801333B6067
S315200006D03B683F2BF3DDC046BD4604B080BDC04617
S70520000000DA
