S01600002E2F44656275672F4C4344446973702E73313908
S315200000000248854600F046FAFEE7C04600C00120B9
S3152000001080B500AF0C4B00221A600C4B31221A60BF
S315200000200B4B00221A60084B05221A60C046064B6D
S315200000301A6880235B021340F9D0034B00221A6012
S31520000040C046BD4680BDC04610E000E014E000E09A
S3152000005018E000E080B500AFFFF7DAFFFFF7D8FF22
S31520000060C046BD4680BD80B582B000AF0200FB1DF4
S315200000701A700949084B1B78DBB25AB2FB1D1B7854
S315200000805BB2042083435BB213435BB2DBB20B70DB
S31520000090C046BD4602B080BD1410024080B582B075
S315200000A000AF0200FB1D1A700849084B1B78DBB213
S315200000B05BB2FA1D127852B2D24352B213405BB2EF
S315200000C0DBB20B70C046BD4602B080BD14100240A4
S315200000D080B582B000AF0200FB1D1A70FB1D1B7895
S315200000E0002B06D10820FFF7D9FF1020FFF7D6FFF7
S315200000F01FE0FB1D1B78182B06D10820FFF7B3FF46
S315200001001020FFF7B0FF14E0FB1D1B78082B06D14B
S315200001100820FFF7A8FF1020FFF7C0FF09E0FB1D0E
S315200001201B78102B05D10820FFF7B8FF1020FFF70A
S315200001309AFFC046BD4602B080BD80B582B000AFF2
S315200001404020FFF7ABFF154B154A1A600120FFF739
S31520000150A5FF0220FFF787FFFFF77CFF4020FFF770
S3152000016082FFFFF777FF4020FFF798FFFFF772FF28
S315200001700C4AFB1D12781A700A4B1B78DBB25BB255
S31520000180002B00DAEAE7C0464020FFF76CFF034B5E
S31520000190054A1A60C046BD4602B080BD0010024026
S315200001A055550000111002405555555580B584B05F
S315200001B000AF0200FB1D1A704020FFF76FFF1C4B9B
S315200001C01C4A1A600120FFF74EFF0220FFF74BFF63
S315200001D0FB1D1B781800FFF77BFFFFF73BFF402036
S315200001E0FFF741FFFFF736FF134A0F23FB1812785C
S315200001F01A704020FFF752FF0D4B104A1A60FB1D64
S315200002001B78082B04D10820FFF762FFFFF795FF24
S31520000210FB1D1B78102B04D11020FFF759FFFFF789
S315200002208CFF0F23FB181B781800BD4604B080BD39
S3152000023000100240555500001110024055555555E5
S3152000024080B582B000AF0200FB1D1A70BB1D0A1CD0
S315200002501A701A4AFB1D1B781370BB1D1B781800D9
S31520000260FFF736FFFFF7F6FE4020FFF7FCFEFFF70D
S31520000270F1FE4020FFF712FFBB1D1B78082213401A
S3152000028004D00820FFF724FFFFF757FFBB1D1B787C
S315200002901022134004D01020FFF71AFFFFF74DFF5E
S315200002A0064B00221A704020FFF7DDFE0020FFF7E4
S315200002B00FFFC046BD4602B080BDC04615100240A5
S315200002C080B582B000AF0200FB1D1A70BB1D0A1C50
S315200002D01A704020FFF7E2FEBB1D1B781800FFF7BF
S315200002E0F7FE0120FFF7DAFE0220FFF7D7FEBB1D3F
S315200002F01A78FB1D1B7811001800FFF7A1FFC046D6
S31520000300BD4602B080BD80B582B000AF0200FB1DA5
S315200003101A70BB1D0A1C1A704020FFF7BFFEBB1DBA
S315200003201B781800FFF7D4FE0120FFF79CFE022061
S31520000330FFF7B4FEBB1D1A78FB1D1B7811001800B1
S31520000340FFF77EFFC046BD4602B080BD80B582B0B5
S3152000035000AF0200FB1D1A70FB1D1B781800FFF76B
S3152000036025FFFB1D1B781800FFF720FF0300180050
S31520000370BD4602B080BD80B582B000AF786007E090
S31520000380FFF746FEFFF744FEFFF742FEFFF740FE6B
S315200003907B685A1E7A60002BF2D1C046BD4602B059
S315200003A080BD80B582B000AF78607B681800FFF70B
S315200003B0E2FFC046BD4602B080BD80B500AF034B0C
S315200003C0034A1A60C046BD4680BDC04600100240A2
S315200003D05555555580B500AF4020FFF744FE0A20FD
S315200003E0FFF7C9FF0820FFF759FE1020FFF756FE3A
S315200003F02020FFF753FE4020FFF750FE1E20FFF778
S31520000400D0FF2020FFF72FFE18213E20FFF758FFB0
S3152000041018213F20FFF754FF1821C020FFF750FF77
S3152000042018214020FFF74CFF1821B820FFF748FF7E
S315200004300020FFF74DFEC046BD4680BD80B582B088
S3152000044000AF00237B601EE07B685BB248225242ED
S3152000045013435BB2DBB218211800FFF731FF1821D6
S315200004604020FFF72DFF00233B6006E018210020E7
S31520000470FFF749FF3B6801333B603B683E2BF5DDC8
S315200004807B6801337B607B68072BDDDDC046BD467C
S3152000049002B080BD80B500AFFFF78FFFFFF79AFF50
S315200004A018214A20FFF70CFF1821B920FFF708FF73
S315200004B01821FF20FFF727FFC046BD4680BDC04656
S70520000000DA
