S01600002E2F44656275672F4C4344446973702E73313908
S315200000000248854600F037FAFEE7C04600C00120C8
S3152000001080B500AF024B034A1A60C046BD4680BD7C
S31520000020001002405555555580B500AF0C4B0022A7
S315200000301A600C4B31221A600B4B00221A60084BB7
S3152000004005221A60C046064B1A6880235B021340BD
S31520000050F9D0034B00221A60C046BD4680BDC0467B
S3152000006010E000E014E000E018E000E080B582B087
S3152000007000AF786007E0FFF7D7FFFFF7D5FFFFF760
S31520000080D3FFFFF7D1FF7B685A1E7A60002BF2D18F
S31520000090C046BD4602B080BD80B582B000AF786054
S315200000A07B681800FFF7E2FFC046BD4602B080BD60
S315200000B080B500AFFFF7B8FFFFF7B6FFC046BD46D5
S315200000C080BD80B582B000AF0200FB1D1A700949C1
S315200000D0084B1B78DBB25AB2FB1D1B785BB204209F
S315200000E083435BB213435BB2DBB20B70C046BD46A3
S315200000F002B080BD1410024080B582B000AF02006D
S31520000100FB1D1A700849084B1B78DBB25BB2FA1D3F
S31520000110127852B2D24352B213405BB2DBB20B70AA
S31520000120C046BD4602B080BD1410024080B582B0E4
S3152000013000AF0200FB1D1A70FB1D1B78002B06D199
S315200001400820FFF7D9FF1020FFF7D6FF1FE0FB1D81
S315200001501B78182B06D10820FFF7B3FF1020FFF7D6
S31520000160B0FF14E0FB1D1B78082B06D10820FFF7F3
S31520000170A8FF1020FFF7C0FF09E0FB1D1B78102BFE
S3152000018005D10820FFF7B8FF1020FFF79AFFC046D9
S31520000190BD4602B080BD80B582B000AF4020FFF7DB
S315200001A0ABFF154B154A1A600120FFF7A5FF022069
S315200001B0FFF787FFFFF77CFF4020FFF782FFFFF75F
S315200001C077FF4020FFF798FFFFF772FF0C4AFB1DD1
S315200001D012781A700A4B1B78DBB25BB2002B00DA5E
S315200001E0EAE7C0464020FFF76CFF034B054A1A603A
S315200001F0C046BD4602B080BD0010024055550000E5
S31520000200111002405555555580B584B000AF0200F7
S31520000210FB1D1A704020FFF76FFF1B4B1B4A1A600D
S315200002200320FFF74EFFFB1D1B781800FFF77EFF0C
S31520000230FFF73EFF4020FFF744FFFFF739FF144A40
S315200002400F23FB1812781A704020FFF755FF0E4B2C
S31520000250104A1A60FB1D1B78082B04D10820FFF7D3
S3152000026065FFFFF798FFFB1D1B78102B04D110208C
S31520000270FFF75CFFFFF78FFF0F23FB181B78180093
S31520000280BD4604B080BDC046001002405555000052
S31520000290111002405555555580B582B000AF020069
S315200002A0FB1D1A70BB1D0A1C1A701A4AFB1D1B78EF
S315200002B01370BB1D1B781800FFF738FFFFF7F8FEF9
S315200002C04020FFF7FEFEFFF7F3FE4020FFF714FF66
S315200002D0BB1D1B780822134004D00820FFF726FFF9
S315200002E0FFF759FFBB1D1B781022134004D01020A6
S315200002F0FFF71CFFFFF74FFF064B00221A70402026
S31520000300FFF7DFFE0020FFF711FFC046BD4602B013
S3152000031080BDC0461510024080B582B000AF0200F5
S31520000320FB1D1A70BB1D0A1C1A704020FFF7E4FE45
S31520000330BB1D1B781800FFF7F9FE0320FFF7DCFE34
S31520000340BB1D1A78FB1D1B7811001800FFF7A4FFB0
S31520000350C046BD4602B080BD80B582B000AF020067
S31520000360FB1D1A70BB1D0A1C1A704020FFF7C4FE25
S31520000370BB1D1B781800FFF7D9FE0120FFF7A1FE51
S315200003800220FFF7B9FEBB1D1A78FB1D1B78110052
S315200003901800FFF781FFC046BD4602B080BD80B57C
S315200003A082B000AF0200FB1D1A70FB1D1B781800DF
S315200003B0FFF72AFFFB1D1B781800FFF725FF030018
S315200003C01800BD4602B080BD80B500AF4020FFF7C3
S315200003D078FE0A20FFF74AFE7820FFF78DFE1E20C2
S315200003E0FFF75AFE2020FFF76CFE18213E20FFF76C
S315200003F093FF18213F20FFF78FFF1821C020FFF71A
S315200004008BFF18214020FFF787FF1821B820FFF720
S3152000041083FF0020FFF78AFEC046BD4680BD80B51B
S3152000042082B000AF00237B601EE07B685BB248226F
S31520000430524213435BB2DBB218211800FFF76CFF60
S3152000044018214020FFF768FF00233B6006E01821B3
S315200004500020FFF781FF3B6801333B603B683E2B62
S31520000460F5DD7B6801337B607B68062BDDDDC046CE
S31520000470BD4602B080BD80B500AFFFF7C9FDFFF7CE
S31520000480A3FF18214A20FFF747FF1821B920FFF7BD
S3152000049043FF1821FF20FFF75FFFC046BD4680BD02
S70520000000DA
